:10000E0018041E041D081B021902180216041202FF
:10001E00140219021202000211040002120214024A
:10002E0019021202000211040002120214021B0233
:10003E001906120618041606000311020F020D0807
:10004E0000040F011101140214011403160214040A
:10005E0000021601180119021901190319021902D9
:10006E0018021601140216090004160214021406D0
:10007E00140211010F010D021102120211020F02E0
:10008E000F0211010F0511020F010F030D020D02D8
:10009E000D010D050F020D020D06000616011801C9
:1000AE001902190119031902180216021401140378
:1000BE00140411020F020D04000219011901190294
:1000CE0019011B011B021B0219011B021D06000256
:1000DE001D031B021901000619011901190219014C
:1000EE001B030002140114011D041B041908000255
:1000FE0019011901190219011B031B011B01190119
:10010E001802190900041602160218021602180225
:10011E001908190119011B0219021B021D081D02E3
:10012E001B061D02190800021601180119021901F9
:10013E0019031902180216021401140314041102F1
:10014E000F020D04000419011901190219011B01F6
:10015E001B021B0219011B021D091D031B021901A3
:10016E00000219011901190219011B0300021401E1
:10017E0014011D041B0419080002190119011902AA
:0F018E0019011B031B011B01190118021909FF9D
:10027A00204A0C0000F920F97FF9E0FA35FA8BFAE6
:10028A00D7FB22FB67FBA9FBE8FC22FC5AFC8EFC8D
:10029A00BFFCEEFD1AFD44FD6BFD90FDB3FDD4FDE0
:1002AA00F3FE11FE2DFE47FE5FFE77FE8DFEA2FED7
:0D02BA00B5FEC8FED9FEEAFEF9FF08FF16EA
:10022900120304740E2509F58274003508F583E478
:1002390093FFF46038750A008F0B0509E509700210
:100249000508240EF58274003508F583E49375F0EA
:10025900AFA4FFAEF012031B0509E50970020508FA
:10026900C28C7F057E0012031BD28C80B6C28C80A3
:01027900FE86
:03000B000202C826
:1002C800C0E0C0D075D000C000C004C006C007AFF1
:1002D8000BEF25E0240CF8E6FC08E64C6011EF254E
:1002E800E0240CF8E6FE08E6F58AEEF58CB2A5D017
:0C02F80007D006D004D000D0D0D0E032F7
:10031B00EF1FAC0670011E4C600A7D027CEFDCFE09
:04032B00DDFC80EC89
:01032F0022AB
:100304005389F0438901758A18758CFCC28DD28C8F
:07031400D2A9D2AFC2B92249
:0300000002019D5D
:0C019D00787FE4F6D8FD7581550201E47E
:1001A900020229E493A3F8E493A34003F68001F241
:1001B90008DFF48029E493A3F85407240CC8C33357
:1001C900C4540F4420C8834004F456800146F6DF26
:1001D900E4800B010204081020408090027AE47E3A
:1001E900019360BCA3FF543F30E509541FFEE4931B
:1001F900A360010ECF54C025E060A840B8E493A3E2
:10020900FAE493A3F8E493A3C8C582C8CAC583CA0C
:10021900F0A3C8C582C8CAC583CADFE9DEE780BEC4
:0102C7000036
:00000001FF
